{
  "_format": "hh-sol-artifact-1",
  "contractName": "WavePortal",
  "sourceName": "contracts/WavePortal.sol",
  "abi": [
    {
      "inputs": [],
      "stateMutability": "payable",
      "type": "constructor"
    },
    {
      "anonymous": false,
      "inputs": [
        {
          "indexed": false,
          "internalType": "string",
          "name": "title",
          "type": "string"
        },
        {
          "indexed": true,
          "internalType": "string",
          "name": "sender",
          "type": "string"
        },
        {
          "indexed": false,
          "internalType": "string",
          "name": "ipfsHash",
          "type": "string"
        },
        {
          "indexed": true,
          "internalType": "string",
          "name": "recipient",
          "type": "string"
        },
        {
          "indexed": false,
          "internalType": "uint256",
          "name": "timestamp",
          "type": "uint256"
        }
      ],
      "name": "FileUploaded",
      "type": "event"
    },
    {
      "inputs": [
        {
          "internalType": "string",
          "name": "_recipient",
          "type": "string"
        }
      ],
      "name": "getAllFilesForRecipient",
      "outputs": [
        {
          "components": [
            {
              "internalType": "string",
              "name": "title",
              "type": "string"
            },
            {
              "internalType": "string",
              "name": "ipfsHash",
              "type": "string"
            },
            {
              "internalType": "string",
              "name": "sender",
              "type": "string"
            },
            {
              "internalType": "string",
              "name": "recipient",
              "type": "string"
            },
            {
              "internalType": "uint256",
              "name": "timestamp",
              "type": "uint256"
            }
          ],
          "internalType": "struct WavePortal.File[]",
          "name": "",
          "type": "tuple[]"
        }
      ],
      "stateMutability": "view",
      "type": "function"
    },
    {
      "inputs": [
        {
          "internalType": "string",
          "name": "_sender",
          "type": "string"
        }
      ],
      "name": "getAllFilesForSender",
      "outputs": [
        {
          "components": [
            {
              "internalType": "string",
              "name": "title",
              "type": "string"
            },
            {
              "internalType": "string",
              "name": "ipfsHash",
              "type": "string"
            },
            {
              "internalType": "string",
              "name": "sender",
              "type": "string"
            },
            {
              "internalType": "string",
              "name": "recipient",
              "type": "string"
            },
            {
              "internalType": "uint256",
              "name": "timestamp",
              "type": "uint256"
            }
          ],
          "internalType": "struct WavePortal.File[]",
          "name": "",
          "type": "tuple[]"
        }
      ],
      "stateMutability": "view",
      "type": "function"
    },
    {
      "inputs": [
        {
          "internalType": "string",
          "name": "_title",
          "type": "string"
        },
        {
          "internalType": "string",
          "name": "_ipfsHash",
          "type": "string"
        },
        {
          "internalType": "string",
          "name": "_sender",
          "type": "string"
        },
        {
          "internalType": "string",
          "name": "_recipient",
          "type": "string"
        }
      ],
      "name": "uploadFile",
      "outputs": [],
      "stateMutability": "nonpayable",
      "type": "function"
    }
  ],
  "bytecode": "0x60806040526200003360405180606001604052806025815260200162001277602591396200003960201b620008891760201c565b62000231565b620000d981604051602401620000509190620001aa565b6040516020818303038152906040527f41304fac000000000000000000000000000000000000000000000000000000007bffffffffffffffffffffffffffffffffffffffffffffffffffffffff19166020820180517bffffffffffffffffffffffffffffffffffffffffffffffffffffffff8381831617835250505050620000dc60201b60201c565b50565b6200010281620000fd6200010560201b62000922176200012660201b60201c565b60201c565b50565b60006a636f6e736f6c652e6c6f679050600080835160208501845afa505050565b6200013a60201b6200096817819050919050565b7f4e487b7100000000000000000000000000000000000000000000000000000000600052605160045260246000fd5b60006200017682620001ce565b620001828185620001d9565b935062000194818560208601620001ea565b6200019f8162000220565b840191505092915050565b60006020820190508181036000830152620001c6818462000169565b905092915050565b600081519050919050565b600082825260208201905092915050565b60005b838110156200020a578082015181840152602081019050620001ed565b838111156200021a576000848401525b50505050565b6000601f19601f8301169050919050565b61103680620002416000396000f3fe608060405234801561001057600080fd5b50600436106100415760003560e01c80634230f7f314610046578063c089de2b14610076578063f0286d46146100a6575b600080fd5b610060600480360381019061005b9190610aa2565b6100c2565b60405161006d9190610d92565b60405180910390f35b610090600480360381019061008b9190610aa2565b610391565b60405161009d9190610d92565b60405180910390f35b6100c060048036038101906100bb9190610ae3565b610660565b005b60606001826040516100d49190610d7b565b9081526020016040518091039020805480602002602001604051908101604052809291908181526020016000905b8282101561038657838290600052602060002090600502016040518060a001604052908160008201805461013590610f2e565b80601f016020809104026020016040519081016040528092919081815260200182805461016190610f2e565b80156101ae5780601f10610183576101008083540402835291602001916101ae565b820191906000526020600020905b81548152906001019060200180831161019157829003601f168201915b505050505081526020016001820180546101c790610f2e565b80601f01602080910402602001604051908101604052809291908181526020018280546101f390610f2e565b80156102405780601f1061021557610100808354040283529160200191610240565b820191906000526020600020905b81548152906001019060200180831161022357829003601f168201915b5050505050815260200160028201805461025990610f2e565b80601f016020809104026020016040519081016040528092919081815260200182805461028590610f2e565b80156102d25780601f106102a7576101008083540402835291602001916102d2565b820191906000526020600020905b8154815290600101906020018083116102b557829003601f168201915b505050505081526020016003820180546102eb90610f2e565b80601f016020809104026020016040519081016040528092919081815260200182805461031790610f2e565b80156103645780601f1061033957610100808354040283529160200191610364565b820191906000526020600020905b81548152906001019060200180831161034757829003601f168201915b5050505050815260200160048201548152505081526020019060010190610102565b505050509050919050565b60606000826040516103a39190610d7b565b9081526020016040518091039020805480602002602001604051908101604052809291908181526020016000905b8282101561065557838290600052602060002090600502016040518060a001604052908160008201805461040490610f2e565b80601f016020809104026020016040519081016040528092919081815260200182805461043090610f2e565b801561047d5780601f106104525761010080835404028352916020019161047d565b820191906000526020600020905b81548152906001019060200180831161046057829003601f168201915b5050505050815260200160018201805461049690610f2e565b80601f01602080910402602001604051908101604052809291908181526020018280546104c290610f2e565b801561050f5780601f106104e45761010080835404028352916020019161050f565b820191906000526020600020905b8154815290600101906020018083116104f257829003601f168201915b5050505050815260200160028201805461052890610f2e565b80601f016020809104026020016040519081016040528092919081815260200182805461055490610f2e565b80156105a15780601f10610576576101008083540402835291602001916105a1565b820191906000526020600020905b81548152906001019060200180831161058457829003601f168201915b505050505081526020016003820180546105ba90610f2e565b80601f01602080910402602001604051908101604052809291908181526020018280546105e690610f2e565b80156106335780601f1061060857610100808354040283529160200191610633565b820191906000526020600020905b81548152906001019060200180831161061657829003601f168201915b50505050508152602001600482015481525050815260200190600101906103d1565b505050509050919050565b60006040518060a0016040528086815260200185815260200184815260200183815260200142815250905060008360405161069b9190610d7b565b908152602001604051809103902081908060018154018082558091505060019003906000526020600020906005020160009091909190915060008201518160000190805190602001906106ef929190610997565b50602082015181600101908051906020019061070c929190610997565b506040820151816002019080519060200190610729929190610997565b506060820151816003019080519060200190610746929190610997565b506080820151816004015550506001826040516107639190610d7b565b908152602001604051809103902081908060018154018082558091505060019003906000526020600020906005020160009091909190915060008201518160000190805190602001906107b7929190610997565b5060208201518160010190805190602001906107d4929190610997565b5060408201518160020190805190602001906107f1929190610997565b50606082015181600301908051906020019061080e929190610997565b50608082015181600401555050816040516108299190610d7b565b60405180910390208360405161083f9190610d7b565b60405180910390207ff2bd46f9d9aaa49adfeebc5104fc23977385e108adafda30c7cf8d7e098780ab87874260405161087a93929190610dd6565b60405180910390a35050505050565b61091f8160405160240161089d9190610db4565b6040516020818303038152906040527f41304fac000000000000000000000000000000000000000000000000000000007bffffffffffffffffffffffffffffffffffffffffffffffffffffffff19166020820180517bffffffffffffffffffffffffffffffffffffffffffffffffffffffff8381831617835250505050610943565b50565b60006a636f6e736f6c652e6c6f679050600080835160208501845afa505050565b61095a8161095261092261095d565b63ffffffff16565b50565b610968819050919050565b7f4e487b7100000000000000000000000000000000000000000000000000000000600052605160045260246000fd5b8280546109a390610f2e565b90600052602060002090601f0160209004810192826109c55760008555610a0c565b82601f106109de57805160ff1916838001178555610a0c565b82800160010185558215610a0c579182015b82811115610a0b5782518255916020019190600101906109f0565b5b509050610a199190610a1d565b5090565b5b80821115610a36576000816000905550600101610a1e565b5090565b6000610a4d610a4884610e40565b610e1b565b905082815260208101848484011115610a6557600080fd5b610a70848285610eec565b509392505050565b600082601f830112610a8957600080fd5b8135610a99848260208601610a3a565b91505092915050565b600060208284031215610ab457600080fd5b600082013567ffffffffffffffff811115610ace57600080fd5b610ada84828501610a78565b91505092915050565b60008060008060808587031215610af957600080fd5b600085013567ffffffffffffffff811115610b1357600080fd5b610b1f87828801610a78565b945050602085013567ffffffffffffffff811115610b3c57600080fd5b610b4887828801610a78565b935050604085013567ffffffffffffffff811115610b6557600080fd5b610b7187828801610a78565b925050606085013567ffffffffffffffff811115610b8e57600080fd5b610b9a87828801610a78565b91505092959194509250565b6000610bb28383610cd2565b905092915050565b6000610bc582610e81565b610bcf8185610ea4565b935083602082028501610be185610e71565b8060005b85811015610c1d5784840389528151610bfe8582610ba6565b9450610c0983610e97565b925060208a01995050600181019050610be5565b50829750879550505050505092915050565b6000610c3a82610e8c565b610c448185610eb5565b9350610c54818560208601610efb565b610c5d81610fef565b840191505092915050565b6000610c7382610e8c565b610c7d8185610ec6565b9350610c8d818560208601610efb565b610c9681610fef565b840191505092915050565b6000610cac82610e8c565b610cb68185610ed7565b9350610cc6818560208601610efb565b80840191505092915050565b600060a0830160008301518482036000860152610cef8282610c2f565b91505060208301518482036020860152610d098282610c2f565b91505060408301518482036040860152610d238282610c2f565b91505060608301518482036060860152610d3d8282610c2f565b9150506080830151610d526080860182610d5d565b508091505092915050565b610d6681610ee2565b82525050565b610d7581610ee2565b82525050565b6000610d878284610ca1565b915081905092915050565b60006020820190508181036000830152610dac8184610bba565b905092915050565b60006020820190508181036000830152610dce8184610c68565b905092915050565b60006060820190508181036000830152610df08186610c68565b90508181036020830152610e048185610c68565b9050610e136040830184610d6c565b949350505050565b6000610e25610e36565b9050610e318282610f60565b919050565b6000604051905090565b600067ffffffffffffffff821115610e5b57610e5a610fc0565b5b610e6482610fef565b9050602081019050919050565b6000819050602082019050919050565b600081519050919050565b600081519050919050565b6000602082019050919050565b600082825260208201905092915050565b600082825260208201905092915050565b600082825260208201905092915050565b600081905092915050565b6000819050919050565b82818337600083830152505050565b60005b83811015610f19578082015181840152602081019050610efe565b83811115610f28576000848401525b50505050565b60006002820490506001821680610f4657607f821691505b60208210811415610f5a57610f59610f91565b5b50919050565b610f6982610fef565b810181811067ffffffffffffffff82111715610f8857610f87610fc0565b5b80604052505050565b7f4e487b7100000000000000000000000000000000000000000000000000000000600052602260045260246000fd5b7f4e487b7100000000000000000000000000000000000000000000000000000000600052604160045260246000fd5b6000601f19601f830116905091905056fea264697066735822122083a6febedf71d97b5066309e17530c19ba0fc5c59dcf428e4cfaf2a9de44904264736f6c63430008040033596f20796f2c204920616d206120636f6e747261637420616e64204920616d20736d617274",
  "linkReferences": {},
  "deployedLinkReferences": {}
}