{
  "_format": "hh-sol-artifact-1",
  "contractName": "WavePortal",
  "sourceName": "contracts/WavePortal.sol",
  "abi": [
    {
      "inputs": [],
      "stateMutability": "payable",
      "type": "constructor"
    },
    {
      "anonymous": false,
      "inputs": [
        {
          "indexed": true,
          "internalType": "string",
          "name": "sender",
          "type": "string"
        },
        {
          "indexed": false,
          "internalType": "string",
          "name": "ipfsHash",
          "type": "string"
        },
        {
          "indexed": true,
          "internalType": "string",
          "name": "recipient",
          "type": "string"
        },
        {
          "indexed": false,
          "internalType": "uint256",
          "name": "timestamp",
          "type": "uint256"
        }
      ],
      "name": "FileUploaded",
      "type": "event"
    },
    {
      "inputs": [
        {
          "internalType": "string",
          "name": "_recipient",
          "type": "string"
        }
      ],
      "name": "getAllFilesForRecipient",
      "outputs": [
        {
          "components": [
            {
              "internalType": "string",
              "name": "ipfsHash",
              "type": "string"
            },
            {
              "internalType": "string",
              "name": "sender",
              "type": "string"
            },
            {
              "internalType": "string",
              "name": "recipient",
              "type": "string"
            },
            {
              "internalType": "uint256",
              "name": "timestamp",
              "type": "uint256"
            }
          ],
          "internalType": "struct WavePortal.File[]",
          "name": "",
          "type": "tuple[]"
        }
      ],
      "stateMutability": "view",
      "type": "function"
    },
    {
      "inputs": [
        {
          "internalType": "string",
          "name": "_sender",
          "type": "string"
        }
      ],
      "name": "getAllFilesForSender",
      "outputs": [
        {
          "components": [
            {
              "internalType": "string",
              "name": "ipfsHash",
              "type": "string"
            },
            {
              "internalType": "string",
              "name": "sender",
              "type": "string"
            },
            {
              "internalType": "string",
              "name": "recipient",
              "type": "string"
            },
            {
              "internalType": "uint256",
              "name": "timestamp",
              "type": "uint256"
            }
          ],
          "internalType": "struct WavePortal.File[]",
          "name": "",
          "type": "tuple[]"
        }
      ],
      "stateMutability": "view",
      "type": "function"
    },
    {
      "inputs": [],
      "name": "getAllWaves",
      "outputs": [
        {
          "components": [
            {
              "internalType": "address",
              "name": "sender",
              "type": "address"
            },
            {
              "internalType": "string",
              "name": "message",
              "type": "string"
            },
            {
              "internalType": "uint256",
              "name": "timestamp",
              "type": "uint256"
            }
          ],
          "internalType": "struct WavePortal.Wave[]",
          "name": "",
          "type": "tuple[]"
        }
      ],
      "stateMutability": "view",
      "type": "function"
    },
    {
      "inputs": [],
      "name": "getTotalWaves",
      "outputs": [
        {
          "internalType": "uint256",
          "name": "",
          "type": "uint256"
        }
      ],
      "stateMutability": "view",
      "type": "function"
    },
    {
      "inputs": [
        {
          "internalType": "string",
          "name": "_ipfsHash",
          "type": "string"
        },
        {
          "internalType": "string",
          "name": "_sender",
          "type": "string"
        },
        {
          "internalType": "string",
          "name": "_recipient",
          "type": "string"
        }
      ],
      "name": "uploadFile",
      "outputs": [],
      "stateMutability": "nonpayable",
      "type": "function"
    },
    {
      "inputs": [
        {
          "internalType": "string",
          "name": "_message",
          "type": "string"
        }
      ],
      "name": "wave",
      "outputs": [],
      "stateMutability": "nonpayable",
      "type": "function"
    }
  ],
  "bytecode": "0x6080604052620000336040518060600160405280602581526020016200188f602591396200003960201b62000a9d1760201c565b62000231565b620000d981604051602401620000509190620001aa565b6040516020818303038152906040527f41304fac000000000000000000000000000000000000000000000000000000007bffffffffffffffffffffffffffffffffffffffffffffffffffffffff19166020820180517bffffffffffffffffffffffffffffffffffffffffffffffffffffffff8381831617835250505050620000dc60201b60201c565b50565b6200010281620000fd6200010560201b62000b36176200012660201b60201c565b60201c565b50565b60006a636f6e736f6c652e6c6f679050600080835160208501845afa505050565b6200013a60201b62000d5017819050919050565b7f4e487b7100000000000000000000000000000000000000000000000000000000600052605160045260246000fd5b60006200017682620001ce565b620001828185620001d9565b935062000194818560208601620001ea565b6200019f8162000220565b840191505092915050565b60006020820190508181036000830152620001c6818462000169565b905092915050565b600081519050919050565b600082825260208201905092915050565b60005b838110156200020a578082015181840152602081019050620001ed565b838111156200021a576000848401525b50505050565b6000601f19601f8301169050919050565b61164e80620002416000396000f3fe608060405234801561001057600080fd5b50600436106100625760003560e01c80634230f7f314610067578063449d46c01461009757806392bb481a146100b35780639a2cdc08146100cf578063bd43a908146100ed578063c089de2b1461010b575b600080fd5b610081600480360381019061007c9190610e8a565b61013b565b60405161008e919061122b565b60405180910390f35b6100b160048036038101906100ac9190610e8a565b610378565b005b6100cd60048036038101906100c89190610ecb565b6104de565b005b6100d76106c4565b6040516100e49190611328565b60405180910390f35b6100f561070f565b604051610102919061124d565b60405180910390f35b61012560048036038101906101209190610e8a565b610860565b604051610132919061122b565b60405180910390f35b606060028260405161014d9190611214565b9081526020016040518091039020805480602002602001604051908101604052809291908181526020016000905b8282101561036d57838290600052602060002090600402016040518060800160405290816000820180546101ae90611517565b80601f01602080910402602001604051908101604052809291908181526020018280546101da90611517565b80156102275780601f106101fc57610100808354040283529160200191610227565b820191906000526020600020905b81548152906001019060200180831161020a57829003601f168201915b5050505050815260200160018201805461024090611517565b80601f016020809104026020016040519081016040528092919081815260200182805461026c90611517565b80156102b95780601f1061028e576101008083540402835291602001916102b9565b820191906000526020600020905b81548152906001019060200180831161029c57829003601f168201915b505050505081526020016002820180546102d290611517565b80601f01602080910402602001604051908101604052809291908181526020018280546102fe90611517565b801561034b5780601f106103205761010080835404028352916020019161034b565b820191906000526020600020905b81548152906001019060200180831161032e57829003601f168201915b505050505081526020016003820154815250508152602001906001019061017b565b505050509050919050565b600160008082825461038a9190611443565b925050819055506103d06040518060400160405280600d81526020017f257320686173207761766564210000000000000000000000000000000000000081525033610b57565b600360405180606001604052803373ffffffffffffffffffffffffffffffffffffffff16815260200183815260200142815250908060018154018082558091505060019003906000526020600020906003020160009091909190915060008201518160000160006101000a81548173ffffffffffffffffffffffffffffffffffffffff021916908373ffffffffffffffffffffffffffffffffffffffff160217905550602082015181600101908051906020019061048f929190610d7f565b506040820151816002015550506104db6040518060400160405280601f81526020017f52656365697665642061206e65772077617665206d6573736167653a2025730081525082610bf3565b50565b600060405180608001604052808581526020018481526020018381526020014281525090506001836040516105139190611214565b90815260200160405180910390208190806001815401808255809150506001900390600052602060002090600402016000909190919091506000820151816000019080519060200190610567929190610d7f565b506020820151816001019080519060200190610584929190610d7f565b5060408201518160020190805190602001906105a1929190610d7f565b506060820151816003015550506002826040516105be9190611214565b90815260200160405180910390208190806001815401808255809150506001900390600052602060002090600402016000909190919091506000820151816000019080519060200190610612929190610d7f565b50602082015181600101908051906020019061062f929190610d7f565b50604082015181600201908051906020019061064c929190610d7f565b50606082015181600301555050816040516106679190611214565b60405180910390208360405161067d9190611214565b60405180910390207ff55f92960f2463eeef8dfa47dbe286e2a52c02a35b326d6e1061b082307f9a3c86426040516106b69291906112f8565b60405180910390a350505050565b60006107076040518060400160405280601781526020017f5765206861766520256420746f74616c20776176657321000000000000000000815250600054610c8f565b600054905090565b60606003805480602002602001604051908101604052809291908181526020016000905b8282101561085757838290600052602060002090600302016040518060600160405290816000820160009054906101000a900473ffffffffffffffffffffffffffffffffffffffff1673ffffffffffffffffffffffffffffffffffffffff1673ffffffffffffffffffffffffffffffffffffffff1681526020016001820180546107bc90611517565b80601f01602080910402602001604051908101604052809291908181526020018280546107e890611517565b80156108355780601f1061080a57610100808354040283529160200191610835565b820191906000526020600020905b81548152906001019060200180831161081857829003601f168201915b5050505050815260200160028201548152505081526020019060010190610733565b50505050905090565b60606001826040516108729190611214565b9081526020016040518091039020805480602002602001604051908101604052809291908181526020016000905b82821015610a9257838290600052602060002090600402016040518060800160405290816000820180546108d390611517565b80601f01602080910402602001604051908101604052809291908181526020018280546108ff90611517565b801561094c5780601f106109215761010080835404028352916020019161094c565b820191906000526020600020905b81548152906001019060200180831161092f57829003601f168201915b5050505050815260200160018201805461096590611517565b80601f016020809104026020016040519081016040528092919081815260200182805461099190611517565b80156109de5780601f106109b3576101008083540402835291602001916109de565b820191906000526020600020905b8154815290600101906020018083116109c157829003601f168201915b505050505081526020016002820180546109f790611517565b80601f0160208091040260200160405190810160405280929190818152602001828054610a2390611517565b8015610a705780601f10610a4557610100808354040283529160200191610a70565b820191906000526020600020905b815481529060010190602001808311610a5357829003601f168201915b50505050508152602001600382015481525050815260200190600101906108a0565b505050509050919050565b610b3381604051602401610ab1919061126f565b6040516020818303038152906040527f41304fac000000000000000000000000000000000000000000000000000000007bffffffffffffffffffffffffffffffffffffffffffffffffffffffff19166020820180517bffffffffffffffffffffffffffffffffffffffffffffffffffffffff8381831617835250505050610d2b565b50565b60006a636f6e736f6c652e6c6f679050600080835160208501845afa505050565b610bef8282604051602401610b6d929190611291565b6040516020818303038152906040527f319af333000000000000000000000000000000000000000000000000000000007bffffffffffffffffffffffffffffffffffffffffffffffffffffffff19166020820180517bffffffffffffffffffffffffffffffffffffffffffffffffffffffff8381831617835250505050610d2b565b5050565b610c8b8282604051602401610c099291906112c1565b6040516020818303038152906040527f4b5c4277000000000000000000000000000000000000000000000000000000007bffffffffffffffffffffffffffffffffffffffffffffffffffffffff19166020820180517bffffffffffffffffffffffffffffffffffffffffffffffffffffffff8381831617835250505050610d2b565b5050565b610d278282604051602401610ca59291906112f8565b6040516020818303038152906040527fb60e72cc000000000000000000000000000000000000000000000000000000007bffffffffffffffffffffffffffffffffffffffffffffffffffffffff19166020820180517bffffffffffffffffffffffffffffffffffffffffffffffffffffffff8381831617835250505050610d2b565b5050565b610d4281610d3a610b36610d45565b63ffffffff16565b50565b610d50819050919050565b7f4e487b7100000000000000000000000000000000000000000000000000000000600052605160045260246000fd5b828054610d8b90611517565b90600052602060002090601f016020900481019282610dad5760008555610df4565b82601f10610dc657805160ff1916838001178555610df4565b82800160010185558215610df4579182015b82811115610df3578251825591602001919060010190610dd8565b5b509050610e019190610e05565b5090565b5b80821115610e1e576000816000905550600101610e06565b5090565b6000610e35610e3084611368565b611343565b905082815260208101848484011115610e4d57600080fd5b610e588482856114d5565b509392505050565b600082601f830112610e7157600080fd5b8135610e81848260208601610e22565b91505092915050565b600060208284031215610e9c57600080fd5b600082013567ffffffffffffffff811115610eb657600080fd5b610ec284828501610e60565b91505092915050565b600080600060608486031215610ee057600080fd5b600084013567ffffffffffffffff811115610efa57600080fd5b610f0686828701610e60565b935050602084013567ffffffffffffffff811115610f2357600080fd5b610f2f86828701610e60565b925050604084013567ffffffffffffffff811115610f4c57600080fd5b610f5886828701610e60565b9150509250925092565b6000610f6e8383611135565b905092915050565b6000610f8283836111a6565b905092915050565b610f9381611499565b82525050565b610fa281611499565b82525050565b6000610fb3826113b9565b610fbd81856113f4565b935083602082028501610fcf85611399565b8060005b8581101561100b5784840389528151610fec8582610f62565b9450610ff7836113da565b925060208a01995050600181019050610fd3565b50829750879550505050505092915050565b6000611028826113c4565b6110328185611405565b935083602082028501611044856113a9565b8060005b8581101561108057848403895281516110618582610f76565b945061106c836113e7565b925060208a01995050600181019050611048565b50829750879550505050505092915050565b600061109d826113cf565b6110a78185611416565b93506110b78185602086016114e4565b6110c081611607565b840191505092915050565b60006110d6826113cf565b6110e08185611427565b93506110f08185602086016114e4565b6110f981611607565b840191505092915050565b600061110f826113cf565b6111198185611438565b93506111298185602086016114e4565b80840191505092915050565b600060808301600083015184820360008601526111528282611092565b9150506020830151848203602086015261116c8282611092565b915050604083015184820360408601526111868282611092565b915050606083015161119b60608601826111f6565b508091505092915050565b60006060830160008301516111be6000860182610f8a565b50602083015184820360208601526111d68282611092565b91505060408301516111eb60408601826111f6565b508091505092915050565b6111ff816114cb565b82525050565b61120e816114cb565b82525050565b60006112208284611104565b915081905092915050565b600060208201905081810360008301526112458184610fa8565b905092915050565b60006020820190508181036000830152611267818461101d565b905092915050565b6000602082019050818103600083015261128981846110cb565b905092915050565b600060408201905081810360008301526112ab81856110cb565b90506112ba6020830184610f99565b9392505050565b600060408201905081810360008301526112db81856110cb565b905081810360208301526112ef81846110cb565b90509392505050565b6000604082019050818103600083015261131281856110cb565b90506113216020830184611205565b9392505050565b600060208201905061133d6000830184611205565b92915050565b600061134d61135e565b90506113598282611549565b919050565b6000604051905090565b600067ffffffffffffffff821115611383576113826115d8565b5b61138c82611607565b9050602081019050919050565b6000819050602082019050919050565b6000819050602082019050919050565b600081519050919050565b600081519050919050565b600081519050919050565b6000602082019050919050565b6000602082019050919050565b600082825260208201905092915050565b600082825260208201905092915050565b600082825260208201905092915050565b600082825260208201905092915050565b600081905092915050565b600061144e826114cb565b9150611459836114cb565b9250827fffffffffffffffffffffffffffffffffffffffffffffffffffffffffffffffff0382111561148e5761148d61157a565b5b828201905092915050565b60006114a4826114ab565b9050919050565b600073ffffffffffffffffffffffffffffffffffffffff82169050919050565b6000819050919050565b82818337600083830152505050565b60005b838110156115025780820151818401526020810190506114e7565b83811115611511576000848401525b50505050565b6000600282049050600182168061152f57607f821691505b60208210811415611543576115426115a9565b5b50919050565b61155282611607565b810181811067ffffffffffffffff82111715611571576115706115d8565b5b80604052505050565b7f4e487b7100000000000000000000000000000000000000000000000000000000600052601160045260246000fd5b7f4e487b7100000000000000000000000000000000000000000000000000000000600052602260045260246000fd5b7f4e487b7100000000000000000000000000000000000000000000000000000000600052604160045260246000fd5b6000601f19601f830116905091905056fea2646970667358221220142967deda663d6c65ff6ac75841a101a538c6a9681a987befdac648a701005d64736f6c63430008040033596f20796f2c204920616d206120636f6e747261637420616e64204920616d20736d617274",
  "linkReferences": {},
  "deployedLinkReferences": {}
}