{
  "_format": "hh-sol-artifact-1",
  "contractName": "WavePortal",
  "sourceName": "contracts/WavePortal.sol",
  "abi": [
    {
      "anonymous": false,
      "inputs": [
        {
          "indexed": false,
          "internalType": "string",
          "name": "title",
          "type": "string"
        },
        {
          "indexed": true,
          "internalType": "string",
          "name": "sender",
          "type": "string"
        },
        {
          "indexed": false,
          "internalType": "string",
          "name": "ipfsHash",
          "type": "string"
        },
        {
          "indexed": true,
          "internalType": "string",
          "name": "recipient",
          "type": "string"
        }
      ],
      "name": "FileUploaded",
      "type": "event"
    },
    {
      "inputs": [
        {
          "internalType": "string",
          "name": "_recipient",
          "type": "string"
        }
      ],
      "name": "getAllFilesForRecipient",
      "outputs": [
        {
          "components": [
            {
              "internalType": "string",
              "name": "title",
              "type": "string"
            },
            {
              "internalType": "string",
              "name": "ipfsHash",
              "type": "string"
            },
            {
              "internalType": "string",
              "name": "sender",
              "type": "string"
            },
            {
              "internalType": "string",
              "name": "recipient",
              "type": "string"
            }
          ],
          "internalType": "struct WavePortal.File[]",
          "name": "",
          "type": "tuple[]"
        }
      ],
      "stateMutability": "view",
      "type": "function"
    },
    {
      "inputs": [
        {
          "internalType": "string",
          "name": "_sender",
          "type": "string"
        }
      ],
      "name": "getAllFilesForSender",
      "outputs": [
        {
          "components": [
            {
              "internalType": "string",
              "name": "title",
              "type": "string"
            },
            {
              "internalType": "string",
              "name": "ipfsHash",
              "type": "string"
            },
            {
              "internalType": "string",
              "name": "sender",
              "type": "string"
            },
            {
              "internalType": "string",
              "name": "recipient",
              "type": "string"
            }
          ],
          "internalType": "struct WavePortal.File[]",
          "name": "",
          "type": "tuple[]"
        }
      ],
      "stateMutability": "view",
      "type": "function"
    },
    {
      "inputs": [
        {
          "internalType": "string",
          "name": "_title",
          "type": "string"
        },
        {
          "internalType": "string",
          "name": "_ipfsHash",
          "type": "string"
        },
        {
          "internalType": "string",
          "name": "_sender",
          "type": "string"
        },
        {
          "internalType": "string",
          "name": "_recipient",
          "type": "string"
        }
      ],
      "name": "uploadFile",
      "outputs": [],
      "stateMutability": "nonpayable",
      "type": "function"
    }
  ],
  "bytecode": "0x608060405234801561001057600080fd5b50610e8d806100206000396000f3fe608060405234801561001057600080fd5b50600436106100415760003560e01c80634230f7f314610046578063c089de2b14610076578063f0286d46146100a6575b600080fd5b610060600480360381019061005b9190610964565b6100c2565b60405161006d9190610c23565b60405180910390f35b610090600480360381019061008b9190610964565b610387565b60405161009d9190610c23565b60405180910390f35b6100c060048036038101906100bb91906109a5565b61064c565b005b60606001826040516100d49190610c0c565b9081526020016040518091039020805480602002602001604051908101604052809291908181526020016000905b8282101561037c578382906000526020600020906004020160405180608001604052908160008201805461013590610d85565b80601f016020809104026020016040519081016040528092919081815260200182805461016190610d85565b80156101ae5780601f10610183576101008083540402835291602001916101ae565b820191906000526020600020905b81548152906001019060200180831161019157829003601f168201915b505050505081526020016001820180546101c790610d85565b80601f01602080910402602001604051908101604052809291908181526020018280546101f390610d85565b80156102405780601f1061021557610100808354040283529160200191610240565b820191906000526020600020905b81548152906001019060200180831161022357829003601f168201915b5050505050815260200160028201805461025990610d85565b80601f016020809104026020016040519081016040528092919081815260200182805461028590610d85565b80156102d25780601f106102a7576101008083540402835291602001916102d2565b820191906000526020600020905b8154815290600101906020018083116102b557829003601f168201915b505050505081526020016003820180546102eb90610d85565b80601f016020809104026020016040519081016040528092919081815260200182805461031790610d85565b80156103645780601f1061033957610100808354040283529160200191610364565b820191906000526020600020905b81548152906001019060200180831161034757829003601f168201915b50505050508152505081526020019060010190610102565b505050509050919050565b60606000826040516103999190610c0c565b9081526020016040518091039020805480602002602001604051908101604052809291908181526020016000905b8282101561064157838290600052602060002090600402016040518060800160405290816000820180546103fa90610d85565b80601f016020809104026020016040519081016040528092919081815260200182805461042690610d85565b80156104735780601f1061044857610100808354040283529160200191610473565b820191906000526020600020905b81548152906001019060200180831161045657829003601f168201915b5050505050815260200160018201805461048c90610d85565b80601f01602080910402602001604051908101604052809291908181526020018280546104b890610d85565b80156105055780601f106104da57610100808354040283529160200191610505565b820191906000526020600020905b8154815290600101906020018083116104e857829003601f168201915b5050505050815260200160028201805461051e90610d85565b80601f016020809104026020016040519081016040528092919081815260200182805461054a90610d85565b80156105975780601f1061056c57610100808354040283529160200191610597565b820191906000526020600020905b81548152906001019060200180831161057a57829003601f168201915b505050505081526020016003820180546105b090610d85565b80601f01602080910402602001604051908101604052809291908181526020018280546105dc90610d85565b80156106295780601f106105fe57610100808354040283529160200191610629565b820191906000526020600020905b81548152906001019060200180831161060c57829003601f168201915b505050505081525050815260200190600101906103c7565b505050509050919050565b600060405180608001604052808681526020018581526020018481526020018381525090506000836040516106819190610c0c565b908152602001604051809103902081908060018154018082558091505060019003906000526020600020906004020160009091909190915060008201518160000190805190602001906106d5929190610859565b5060208201518160010190805190602001906106f2929190610859565b50604082015181600201908051906020019061070f929190610859565b50606082015181600301908051906020019061072c929190610859565b50505060018260405161073f9190610c0c565b90815260200160405180910390208190806001815401808255809150506001900390600052602060002090600402016000909190919091506000820151816000019080519060200190610793929190610859565b5060208201518160010190805190602001906107b0929190610859565b5060408201518160020190805190602001906107cd929190610859565b5060608201518160030190805190602001906107ea929190610859565b505050816040516107fb9190610c0c565b6040518091039020836040516108119190610c0c565b60405180910390207ff64070d672380ed1acc5537ac5c7c3ead538e9a950464d72e2f5b3b3856366c5878760405161084a929190610c45565b60405180910390a35050505050565b82805461086590610d85565b90600052602060002090601f01602090048101928261088757600085556108ce565b82601f106108a057805160ff19168380011785556108ce565b828001600101855582156108ce579182015b828111156108cd5782518255916020019190600101906108b2565b5b5090506108db91906108df565b5090565b5b808211156108f85760008160009055506001016108e0565b5090565b600061090f61090a84610ca1565b610c7c565b90508281526020810184848401111561092757600080fd5b610932848285610d43565b509392505050565b600082601f83011261094b57600080fd5b813561095b8482602086016108fc565b91505092915050565b60006020828403121561097657600080fd5b600082013567ffffffffffffffff81111561099057600080fd5b61099c8482850161093a565b91505092915050565b600080600080608085870312156109bb57600080fd5b600085013567ffffffffffffffff8111156109d557600080fd5b6109e18782880161093a565b945050602085013567ffffffffffffffff8111156109fe57600080fd5b610a0a8782880161093a565b935050604085013567ffffffffffffffff811115610a2757600080fd5b610a338782880161093a565b925050606085013567ffffffffffffffff811115610a5057600080fd5b610a5c8782880161093a565b91505092959194509250565b6000610a748383610b94565b905092915050565b6000610a8782610ce2565b610a918185610d05565b935083602082028501610aa385610cd2565b8060005b85811015610adf5784840389528151610ac08582610a68565b9450610acb83610cf8565b925060208a01995050600181019050610aa7565b50829750879550505050505092915050565b6000610afc82610ced565b610b068185610d16565b9350610b16818560208601610d52565b610b1f81610e46565b840191505092915050565b6000610b3582610ced565b610b3f8185610d27565b9350610b4f818560208601610d52565b610b5881610e46565b840191505092915050565b6000610b6e82610ced565b610b788185610d38565b9350610b88818560208601610d52565b80840191505092915050565b60006080830160008301518482036000860152610bb18282610af1565b91505060208301518482036020860152610bcb8282610af1565b91505060408301518482036040860152610be58282610af1565b91505060608301518482036060860152610bff8282610af1565b9150508091505092915050565b6000610c188284610b63565b915081905092915050565b60006020820190508181036000830152610c3d8184610a7c565b905092915050565b60006040820190508181036000830152610c5f8185610b2a565b90508181036020830152610c738184610b2a565b90509392505050565b6000610c86610c97565b9050610c928282610db7565b919050565b6000604051905090565b600067ffffffffffffffff821115610cbc57610cbb610e17565b5b610cc582610e46565b9050602081019050919050565b6000819050602082019050919050565b600081519050919050565b600081519050919050565b6000602082019050919050565b600082825260208201905092915050565b600082825260208201905092915050565b600082825260208201905092915050565b600081905092915050565b82818337600083830152505050565b60005b83811015610d70578082015181840152602081019050610d55565b83811115610d7f576000848401525b50505050565b60006002820490506001821680610d9d57607f821691505b60208210811415610db157610db0610de8565b5b50919050565b610dc082610e46565b810181811067ffffffffffffffff82111715610ddf57610dde610e17565b5b80604052505050565b7f4e487b7100000000000000000000000000000000000000000000000000000000600052602260045260246000fd5b7f4e487b7100000000000000000000000000000000000000000000000000000000600052604160045260246000fd5b6000601f19601f830116905091905056fea26469706673582212201a8904d83f5649f009130300bad1478aaf77447a7677bc42e65a556affa6774a64736f6c63430008040033",
  "linkReferences": {},
  "deployedLinkReferences": {}
}